{
  "_format": "hh-sol-artifact-1",
  "contractName": "CrowdFunding",
  "sourceName": "contracts/CrowdFunding.sol",
  "abi": [
    {
      "inputs": [],
      "name": "getContributers",
      "outputs": [
        {
          "components": [
            {
              "internalType": "string",
              "name": "name",
              "type": "string"
            },
            {
              "internalType": "uint256",
              "name": "timestamp",
              "type": "uint256"
            },
            {
              "internalType": "address",
              "name": "from",
              "type": "address"
            }
          ],
          "internalType": "struct CrowdFunding.Contributers[]",
          "name": "",
          "type": "tuple[]"
        }
      ],
      "stateMutability": "view",
      "type": "function"
    },
    {
      "inputs": [
        {
          "internalType": "string",
          "name": "name",
          "type": "string"
        }
      ],
      "name": "sendDonation",
      "outputs": [],
      "stateMutability": "payable",
      "type": "function"
    }
  ],
  "bytecode": "0x608060405273f3ba650f3bb16dc176aa30fa2eb07ec0cb7e1b26600160006101000a81548173ffffffffffffffffffffffffffffffffffffffff021916908373ffffffffffffffffffffffffffffffffffffffff16021790555034801561006557600080fd5b5061085b806100756000396000f3fe6080604052600436106100295760003560e01c806301ad306d1461002e578063404efb881461004a575b600080fd5b6100486004803603810190610043919061044c565b610075565b005b34801561005657600080fd5b5061005f6101f0565b60405161006c91906105fd565b60405180910390f35b600034116100b8576040517f08c379a00000000000000000000000000000000000000000000000000000000081526004016100af9061061f565b60405180910390fd5b600160009054906101000a900473ffffffffffffffffffffffffffffffffffffffff1673ffffffffffffffffffffffffffffffffffffffff166108fc349081150290604051600060405180830381858888f19350505050158015610120573d6000803e3d6000fd5b50600060405180606001604052808381526020014281526020013373ffffffffffffffffffffffffffffffffffffffff1681525090806001815401808255809150506001900390600052602060002090600302016000909190919091506000820151816000019080519060200190610199929190610341565b506020820151816001015560408201518160020160006101000a81548173ffffffffffffffffffffffffffffffffffffffff021916908373ffffffffffffffffffffffffffffffffffffffff160217905550505050565b60606000805480602002602001604051908101604052809291908181526020016000905b82821015610338578382906000526020600020906003020160405180606001604052908160008201805461024790610784565b80601f016020809104026020016040519081016040528092919081815260200182805461027390610784565b80156102c05780601f10610295576101008083540402835291602001916102c0565b820191906000526020600020905b8154815290600101906020018083116102a357829003601f168201915b50505050508152602001600182015481526020016002820160009054906101000a900473ffffffffffffffffffffffffffffffffffffffff1673ffffffffffffffffffffffffffffffffffffffff1673ffffffffffffffffffffffffffffffffffffffff168152505081526020019060010190610214565b50505050905090565b82805461034d90610784565b90600052602060002090601f01602090048101928261036f57600085556103b6565b82601f1061038857805160ff19168380011785556103b6565b828001600101855582156103b6579182015b828111156103b557825182559160200191906001019061039a565b5b5090506103c391906103c7565b5090565b5b808211156103e05760008160009055506001016103c8565b5090565b60006103f76103f284610670565b61063f565b90508281526020810184848401111561040f57600080fd5b61041a848285610742565b509392505050565b600082601f83011261043357600080fd5b81356104438482602086016103e4565b91505092915050565b60006020828403121561045e57600080fd5b600082013567ffffffffffffffff81111561047857600080fd5b61048484828501610422565b91505092915050565b6000610499838361059e565b905092915050565b6104aa81610706565b82525050565b60006104bb826106b0565b6104c581856106d3565b9350836020820285016104d7856106a0565b8060005b8581101561051357848403895281516104f4858261048d565b94506104ff836106c6565b925060208a019950506001810190506104db565b50829750879550505050505092915050565b6000610530826106bb565b61053a81856106e4565b935061054a818560208601610751565b61055381610814565b840191505092915050565b600061056b601f836106f5565b91507f506c65617365207061792067726561746572207468616e2030206574686572006000830152602082019050919050565b600060608301600083015184820360008601526105bb8282610525565b91505060208301516105d060208601826105ee565b5060408301516105e360408601826104a1565b508091505092915050565b6105f781610738565b82525050565b6000602082019050818103600083015261061781846104b0565b905092915050565b600060208201905081810360008301526106388161055e565b9050919050565b6000604051905081810181811067ffffffffffffffff82111715610666576106656107e5565b5b8060405250919050565b600067ffffffffffffffff82111561068b5761068a6107e5565b5b601f19601f8301169050602081019050919050565b6000819050602082019050919050565b600081519050919050565b600081519050919050565b6000602082019050919050565b600082825260208201905092915050565b600082825260208201905092915050565b600082825260208201905092915050565b600061071182610718565b9050919050565b600073ffffffffffffffffffffffffffffffffffffffff82169050919050565b6000819050919050565b82818337600083830152505050565b60005b8381101561076f578082015181840152602081019050610754565b8381111561077e576000848401525b50505050565b6000600282049050600182168061079c57607f821691505b602082108114156107b0576107af6107b6565b5b50919050565b7f4e487b7100000000000000000000000000000000000000000000000000000000600052602260045260246000fd5b7f4e487b7100000000000000000000000000000000000000000000000000000000600052604160045260246000fd5b6000601f19601f830116905091905056fea2646970667358221220005c77082d99f1033b3e94894bbdc7b70937af2d6f8faab5907b691a365505b964736f6c63430008000033",
  "linkReferences": {},
  "deployedLinkReferences": {}
}